:020000040800F2
:1000000000800120C1130008151400081514000811
:10001000151400081514000815140008000000004D
:10002000000000000000000000000000A11B00080C
:100030001514000800000000351C0008951C00087D
:1000400015140008151400081514000815140008EC
:1000500015140008151400081514000815140008DC
:1000600015140008151400081514000815140008CC
:1000700015140008151400081514000815140008BC
:1000800015140008151400081514000800000000DD
:10009000000000000000000000000000151400082F
:1000A000151400081514000815140008151400088C
:1000B000151400081514000815140008151400087C
:1000C000151400081514000815140008151400086C
:1000D000151400081514000815140008000000008D
:1000E000151400081514000815140008000000007D
:1000F00000000000000000000000000015140008CF
:10010000000000001514000815140008151400085C
:1001100000000000000000000000000000000000DF
:10012000151400081514000815140008151400080B
:10013000151400080000000000000000000000008E
:10014000000000000000000000000000151400087E
:1001500015140008151400081514000815140008DB
:10016000151400081514000800000000000000002D
:10017000000000000000000000000000000000007F
:10018000000000001514000800000000000000003E
:100190001514000810B5054C237833B9044B13B17E
:1001A0000448AFF300800123237010BDA00200209B
:1001B0000000000068410008084B10B51BB108485A
:1001C0000849AFF300800848036803B910BD074B26
:1001D000002BFBD0BDE81040184700BF0000000016
:1001E00068410008A40200209C02002000000000DA
:1001F000154B002B08BF134B9D46A3F5803A0021F9
:100200008B460F461348144A121A02F045FF0F4B53
:10021000002B00D098470E4B002B00D098470020B1
:10022000002104000D000D48002802D00C4802F007
:10023000C6FC02F093FE2000290001F091F802F0C4
:10024000CBFC00BF0000080000800120000000007F
:1002500055140008A0020020E0100020BF2B000869
:10026000D52E0008F8B50368DE07044635D5984A50
:10027000916801F00C01042900F0F980916801F007
:100280000C01082900F0EF80924B914D00221A706A
:1002900000F050FB064606E000F04CFB801BB0F57A
:1002A000FA7F00F2C0802B689903F5D4894B22793C
:1002B0001A706368012B00F05F8100F03BFB844DF6
:1002C000064606E000F036FB801BB0F5FA7F00F230
:1002D000AA802B689B03F5D423689F072FD57C4AFF
:1002E000916811F00C0F00F0A480916801F00C01EE
:1002F000082900F09A80E368002B00F0D380764B49
:10030000734D01221A6000F015FB064605E000F06F
:1003100011FB801B642800F286802B686C4A9807CA
:10032000F5D51168F82090FAA0F0B0FA80F02369B2
:10033000C0B221F0F80183400B43136023681A0711
:1003400020D4590734D4A369D3B1614DAA6802F00F
:100350000C02082A00F09480022B604B4FF0000240
:100360001A6000F0B08000F0E5FA2C46054604E083
:1003700000F0E0FA401B642855D823689B01F7D4AD
:100380000020F8BD6369002B7CD0554B504D0122F5
:100390001A6000F0CFFA064604E000F0CBFA801BAA
:1003A000642840D86B6F9F07F7D523685907CAD5D3
:1003B000474B4C4D1A6C42F080521A642B6843F440
:1003C00080732B6000F0B6FA064604E000F0B2FA43
:1003D000801B642827D82B68DA05F7D5424B3C4DA3
:1003E00000221A7000F0A6FA064605E000F0A2FA14
:1003F000801BB0F5167F16D82B6F9B07F6D43A4BAF
:10040000227A1A70A368012B00F0C68000F092FADD
:100410002F4D06462B6F980795D500F08BFA801B61
:10042000B0F5167FF6D90320F8BD526856023FF5A5
:1004300062AF274A1268950702D5E268012A1FD1E8
:10044000234AF825106895FAA5F5B5FA85F52269CD
:100450001F49EDB220F0F800AA4002430A601A07D3
:100460007FF56FAF8EE7526855027FF50DAF184AE2
:10047000126890037FF531AF6268012A3FF42DAF17
:100480000120F8BD164A124D136000F053FA0646DB
:1004900004E000F04FFA801B6428C4D86B6F980703
:1004A000F7D482E70C4A0A4D136000F043FA06467F
:1004B00004E000F03FFA801B6428B4D82B68990749
:1004C000F7D423683BE700F035FA064613E000BF97
:1004D00000380240023802400000474260004742B4
:1004E000800E4742007000407038024000F022FA4F
:1004F000801B642897D82B689901F7D447F6C075FC
:1005000095FAA5F5B5FA85F54FF4403191FAA1F1C8
:10051000B1FA81F14FF0706292FAA2F2B2FA82F26D
:10052000D4F820C0E769A66AD4F824E0E06A224B38
:10053000224C4CEA0707EDB276080EFA05F5C9B26F
:1005400047F00057013E3D43D2B206FA01F100FAEE
:1005500002F229431143012261601A6000F0EAF9B6
:10056000054605E000F0E6F9401B64283FF65BAF66
:1005700023689A01F6D503E700F0DCF90F4D064633
:1005800006E000F0D7F9801BB0F5FA7F3FF64BAFDD
:100590002B689A03F5D59FE600F0CCF9074D064687
:1005A0002B6F9F073FF5CFAE00F0C4F9801BB0F56D
:1005B000167FF5D937E700BF600047420038024098
:1005C000694B1A6802F00F028A422DE9F0410C468D
:1005D000054609D2CAB21A701B6803F00F038B429A
:1005E00055D00120BDE8F08103689A0706D55F4A1F
:1005F0008168906820F0F00001439160DF0724D506
:100600006B685A4A012B126800F08780022B00F0B9
:100610008B809107E5D5554FBA6822F0030213434A
:10062000BB6000F087F96B68012B064641F2883801
:1006300062D0022B05D16AE000F07CF9801B4045B6
:100640006FD8BB6813F00C0FF6D1474BE2B21A70AB
:100650001B6803F00F03A342C3D12B685A0706D5CA
:10066000424AE968906820F4E050014391601B071A
:1006700007D53E4B29699A6822F4604242EAC102DA
:100680009A600F2000F084F90020BDE8F081036833
:100690009F0706D5354A8168906820F0F000014335
:1006A0009160DE07DAD56B68304A012B126858D0AA
:1006B000022B53D0910794D52C4EB26822F003023E
:1006C0001343B36000F036F96B68012B044641F226
:1006D000883732D0022B05D13AE000F02BF9001B0D
:1006E000B8421ED8B36813F00C0FF6D1B5E700F08E
:1006F00021F9801B404514D8BB6803F00C03042B80
:10070000F5D1A2E700F016F9801B404509D8BB6877
:1007100003F00C03082BF5D197E796033FF57BAF69
:100720005FE70320BDE8F08190013FF574AF58E723
:1007300000F000F9001BB842F3D8B36803F00C03D3
:10074000042BF5D189E700F0F5F8001BB842E8D892
:10075000B36803F00C03082BF5D17EE79001ABD40E
:100760003FE79403A8D43CE7003C02400038024035
:10077000234B9A6802F00C02042A10B43CD0082AD9
:1007800003D020485DF8044B704758685A6800F061
:100790003F014FF4800393FAA3F3B3FA83F302F417
:1007A0008002DBB232FA03F3154B47F6C0725C6885
:1007B00092FAA2F2B2FA82F247F6C07314BF12485C
:1007C0001048D2B22340D3400D4AB0FBF1F000FBF9
:1007D00003F052684FF4403393FAA3F3B3FA83F370
:1007E00002F44032DBB222FA03F301335B00B0FBC8
:1007F000F3F05DF8044B704703485DF8044B704715
:10080000003802400024F40000127A0008B5FFF717
:10081000AFFF094BF0229B6892FAA2F2B2FA82F281
:1008200003F0F003D2B223FA02F20449044B8A5CCB
:10083000D040186008BD00BF00380240BC3C000832
:100840009401002008B5FFF7E1FF084A4FF4E05398
:10085000926893FAA3F3B3FA83F302F4E052DBB2A3
:1008600022FA03F3024AD35CD84008BD00380240A4
:10087000BC3C000808B5FFF7C9FF084A4FF46043C5
:10088000926893FAA3F3B3FA83F302F46042DBB203
:1008900022FA03F3024AD35CD84008BD0038024074
:1008A000BC3C00080F4A30B493689468B4F1006F00
:1008B0001A4604D0103030BC42F8201070470A4A63
:1008C00003F5CA7553F8044B42F8044FAB42F9D113
:1008D0004FF00052034B10309A6030BC42F82010A9
:1008E000704700BF00ED00E0FCFFFF1F704700BF36
:1008F00008B50B4B1A6842F400721A601A6842F489
:1009000080621A601A6842F480721A60032000F054
:10091000E5FB0F2000F03CF8FFF7E8FF002008BDE2
:10092000003C0240024B1A6801321A60704700BF57
:10093000BC020020014B1868704700BFBC020020B9
:1009400070B5114C2368DA68910715D4DA6852073C
:1009500009D56FF004020D4E1A615D6A3368EB1A17
:10096000B3F57A7F00D270BDFFF7DCFF23683560F6
:1009700005F57A759D6370BD6FF002021A6101F092
:1009800091FF2368E2E700BF48100020C00200206A
:1009900038B5204B204C1A6C42F008021A641A6ACF
:1009A00042F008021A621A6A22F008021A6200F083
:1009B00087F91A4A1A4B12681A492160A3FB0212DE
:1009C000920C0025013A4FF0FF3320466260E3604D
:1009D0002561A560656100F005FC32201249FFF732
:1009E00061FF124B4FF480225A602946204600F0E6
:1009F00089FB2046042100F085FB23680C495A6AD4
:100A00000A6002F57A729A63DA6842F004022846B4
:100A1000DA6038BD00380240481000209401002000
:100A200083DE1B43000C00404109000800E100E0A8
:100A3000C00200202DE9F00F82B00F68DFF85CC221
:100A40008F4E0197002303E00133102B00F0BC8090
:100A50000122019D9A4002EA05049442F4D14A68B9
:100A600022F01009B9F1020F6CD05D004FF00308BD
:100A7000D0F800B008FA05F86FEA080802F0030A97
:100A800008EA0B0B0AFA05FA09F1FF394BEA0A0AE0
:100A9000B9F1010FC0F800A07ED9D0F80C908F6892
:100AA00008EA090807FA05F548EA0505C560D50012
:100AB000CAD5DCF84480734F23F0030505F1804567
:100AC00048F4804805F59C35CCF8448003F00308D1
:100AD000D5F808A04FEA88084FF00F0909FA08F97D
:100AE000B8422AEA090973D007F58067B84200F0D6
:100AF0009E80654FB84200F09F80644FB84200F07E
:100B0000A080634FB84200F0A180624FB84200F06D
:100B1000A780614FB84200F0A880DFF884A150455B
:100B200000F09980DFF87CA1504500F0A380DFF849
:100B300078A150450CBF4FF0090A4FF00A0A0AFA93
:100B400008F847E04FEAD30800EB880803F00709EC
:100B5000D8F820704FEA89094FF00F0A0AFA09FA0B
:100B600027EA0A0A0F6907FA09F94AEA0905C8F8E3
:100B700020505D004FF00308D0F800A008FA05F8F7
:100B80006FEA080802F0030908EA0A0A09FA05F9F7
:100B90004AEA0909C0F80090D0F80890CF6808EA3E
:100BA000090907FA05FA49EA0A09C0F80890D0F8D5
:100BB00004A0C2F300192AEA040A09FA03F94AEA6E
:100BC0000909C0F8049068E702B0BDE8F00F70476B
:100BD0004FF0000848EA0908C5F80880D6F80080F8
:100BE000E543D7034CBF44EA080805EA0808C6F8FD
:100BF0000080D6F8048097034CBF44EA080805EA51
:100C00000808C6F80480D6F80880D7024CBF44EA2A
:100C1000080805EA0808C6F80880D6F80C80920291
:100C200054BF05EA080444EA0804F4600CE74FF0F6
:100C3000010A0AFA08F8CDE74FF0020A0AFA08F8A2
:100C4000C8E74FF0030A0AFA08F8C3E74FF0040AAE
:100C50000AFA08F8BEE74FF0070A0AFA08F8B9E7F7
:100C60004FF0050A0AFA08F8B4E74FF0060A0AFA44
:100C700008F8AFE74FF0080A0AFA08F8AAE700BF39
:100C8000003C01400000024000080240000C02400D
:100C900000100240001402400018024000380240D8
:100CA000001C0240002002400024024008B572B639
:100CB000962001F027FE962001F024FEF8E700BF01
:100CC000164B9A6802F00C02042A24D0082A0AD093
:100CD000134A124B13489968134BC1F30311415C3B
:100CE000CA401A607047586859685B6842024CBF36
:100CF0000E4A0B4A01F03F01C3F38813B2FBF1F235
:100D000002FB03F2054B5B68C3F3014301335B0055
:100D1000B2FBF3F2DDE7054ADBE700BF0038024033
:100D20000024F400CC3C00089401002000127A005A
:100D30001E4A1F4B116C70B541F080511164196847
:100D400092B021F4404141F4004101221960069221
:100D5000B0B9079207234FF4A871042202244FF47C
:100D60008006082506A811930C940D960E950F91F8
:100D70001092FFF777FA034628B1002012B070BD39
:100D800005230793E6E74FF4805221460F2501A87B
:100D900002940393059301950492FFF711FCD0F19F
:100DA000010038BF002012B070BD00BF0038024003
:100DB000007000401E4A1F4B116CF0B541F080518D
:100DC00011641A6822F4404293B042F400421A605F
:100DD0004FF0030E102300240421072201270225CF
:100DE0004FF4A87606A80A930E93CDF818E0099759
:100DF00007940D940C950F9610911192FFF732FA0B
:100E0000034610B1204613B0F0BD4FF4805229467E
:100E10000F2401A802950393059301940492FFF710
:100E2000CFFBD0F1010038BF002013B0F0BD00BFF0
:100E3000003802400070004008B50120FFF778FF3D
:100E400000B108BDFFF774FF0028FAD1FFF7B2FF29
:100E50000028F6D1FEE700BF174B1848D3F88820CA
:100E600070B542F47002164CC3F888202268154E03
:100E7000154D002142F001022260A160226822F09B
:100E8000847222F480322260666026684FF000622D
:100E900026F480262660E1609A600560FFF728FD51
:100EA000FFF7CAFF236A43F008032362236A23F093
:100EB0000803236270BD00BF00ED00E09401002034
:100EC00000380240103000240024F4002DE9F041E5
:100ED0000568C1682B69C269D0F810E08768466967
:100EE00023F440531943044680692961EB684EEAB4
:100EF000070123F41643314323F00C0311430B4342
:100F0000EB606B6923F440730343B2F5004F6B61F0
:100F1000594B3CD09D4200F08C8003F580639D428C
:100F200000F08780FFF78EFC6368544E00EB800072
:100F30009B0000EB8000B0FBF3F7FFF783FC6368D6
:100F400000EB80009B0000EB8000B0FBF3F8FFF7A4
:100F500079FC636800EB800000EB80009B00B0FB35
:100F6000F3F3A6FB0727A6FB03237F095B09642095
:100F70003F0100FB13884FEA081808F13208A6FB6E
:100F80000836C6F343163743AF60BDE8F0819D4293
:100F90002DD003F580639D4229D0FFF753FC636891
:100FA000364E00EB80005B0000EB8000B0FBF3F7F7
:100FB000FFF748FC636800EB80005B0000EB8000FB
:100FC000B0FBF3F8FFF73EFCA6FB072763687F0939
:100FD00000EB80003F0100EB80005B00B0FBF3F30F
:100FE000A6FB03235B09642202FB1388C3E7FFF718
:100FF00041FC6368214E00EB80005B0000EB800049
:10100000B0FBF3F7FFF736FC636800EB80005B0092
:1010100000EB8000B0FBF3F8FFF72CFCA6FB0727E2
:1010200063687F0900EB80003F0100EB80005B00FC
:10103000D4E7FFF71FFC6368104E00EB80009B00B5
:1010400000EB8000B0FBF3F7FFF714FC636800EBE4
:1010500080009B0000EB8000B0FBF3F8FFF70AFC78
:10106000A6FB072763687F0900EB80003F0100EBC8
:1010700080009B00B2E700BF001001401F85EB51CC
:10108000704700BF10B5044628B390F83930FBB163
:101090002368022284F83920DA6822F40052DA60E8
:1010A0002046FFF713FF23681A6922F490421A6161
:1010B0005A6922F02A025A61D868002240F400508E
:1010C0000121D86084F83A20104684F8391010BD08
:1010D000FFF7D6FFDCE7012010BD00BF074AD1684B
:1010E0004FF6FF030B4043F0BF6300F0070043F4EB
:1010F000003343EA0023D360704700BF00ED00E0F7
:10110000704700BF03680E4A186A10B4012404FA3D
:1011100001F120EA01001862186A934241EA0001D5
:10112000196207D01A685DF8044B42F001020020F2
:101130001A6070475A6C42F400425A64F2E700BFEA
:1011400000000140264A0368904230B434D0B0F128
:10115000804F20D0A2F57C4290421CD002F58062E4
:10116000904218D002F58062904214D002F59A3273
:10117000904214D002F58062904210D002F5806255
:1011800090420CD08C680A6803600123C4628262BA
:1011900030BC436170474A6823F070031343CD6845
:1011A0008C680A6823F440732B4303600123C462F4
:1011B000826230BC436170474C68CA6823F0700398
:1011C0001C4324F44074224302608B68C3620B68A2
:1011D00083620B6903630123436130BC704700BF26
:1011E0000000014010B5044690B190F8393063B169
:1011F0002146022351F8040B84F83930FFF7A2FF8F
:10120000012384F83930002010BDFFF779FFEFE7A4
:10121000012010BD02480221032201F011BA00BFD3
:10122000C0100020022808B50BDDC21E074B53F882
:101230002200002143F8221028B103685B68984718
:1012400008BD002008BD4FF0FF3008BDC4020020DB
:10125000022870B50C4616460FDC0E4B1B680BB906
:10126000FFF7D8FFA51936B114F8011B0A4801F0A1
:1012700073FAAC42F8D1304670BD0338074B53F8CF
:10128000200018B103681B68984770BD4FF0FF300D
:1012900070BD00BF600F0020C0100020C4020020FD
:1012A000022810B50C4609DC0D4B1B688BB10D48AC
:1012B00001F046FA01232070184610BD03380A4B8E
:1012C00053F8200040B103689B68984703461846CE
:1012D00010BDFFF79FFFEAE74FF0FF33ECE700BFD9
:1012E000600F0020C0100020C4020020022808B5B2
:1012F00008DD0338064B53F8200028B10368DB688B
:10130000984708BD012008BD4FF0FF3008BD00BF61
:10131000C4020020022808B508DD0338064B53F844
:10132000200028B103681B69984708BD002008BD4C
:101330004FF0FF3008BD00BFC4020020022808B5EE
:1013400004D84FF400534B60002008BD01F03EFC70
:10135000092303604FF0FF3008BD00BF704700BF96
:1013600008B500F059F8FFF7F9FFBDE8084000F0B4
:101370001FBB00BF074A13681844EFF30881884277
:1013800002D2106018467047034B0C221A604FF0CF
:10139000FF30704798010020DC100020074C08B592
:1013A00023680546986801F0D9FC2368D86801F0E5
:1013B000D5FC05B9FEE7FFF779FCFBE78C020020BE
:1013C000DFF838D0002100F004B80D4B5B584350D3
:1013D00004310C480C4B42189A42FFF4F6AF0B4A0A
:1013E00000F003B8002342F8043B094B9A42FFF493
:1013F000F9AFFFF731FDFEF7FBFE704700800120DB
:101400007441000894010020A0020020A0020020E6
:10141000E0100020FFF7FEBF08B5FFF751FCBDE864
:101420000840FFF765BA00BFFEE7FFF73FBC08B111
:10143000FFF73CBC704700000449054AC1F1005366
:1014400003F5BE339360D160704700BFE010002009
:101450009C0100200020002104460D46094801F0AF
:10146000AEFB01F07BFD2046294600F0E9FEFFF7C8
:10147000E3FF0548002100F07FFF00F0F5FE01F0DA
:10148000ABFB0000D52E00089C010020034B00227E
:101490001A60034A1268DA80704700BFAC0E002061
:1014A000EC3C000808B5104B10485A68104B1968FE
:1014B00091421FBF1A60DA8802F1FF3102681CBF37
:1014C00052189A809A8803889A420BD1084B064892
:1014D00000221A6000F00EFCBDE8084001460248F8
:1014E00000F0F0BB08BD00BF3C0F0020200F002023
:1014F000AC0E0020054B1B7823B9054B4FF08052F2
:101500001A607047034B01221A707047B90E002011
:1015100004ED00E0B80E002038B5194B194D1A68DB
:1015200001215170186800F0F7FB6C78AA78154B10
:10153000EAB103EBC403586802781AB9198900F0BC
:1015400071FA07E0012A03D1996800F049FD01E032
:1015500000F0DAFAEB7801349C4208BF0024EFF384
:10156000108372B6AB78013BAB7062B6DEE75C709D
:10157000054800F0BFFBBDE8384000F08DB800BF63
:10158000BC0E0020C40B00203C0F0020084B1A6842
:10159000084B1A6000225A60072243F8042C064ABE
:1015A000136843F07F4313604FF0FF30704700BF74
:1015B000E83C000814E000E020ED00E07047000087
:1015C00008B50C4B1A6801215170186800F0A4FB93
:1015D000FFF768FF084A13680133136000F0CCFB83
:1015E00000F018FF054800F085FBBDE8084000F05A
:1015F00053B800BFBC0E0020200F00203C0F00207D
:10160000084B1B68DA78012A0AD0DA6A9B6A9A4288
:1016100003D81268044B9A4202D00120FFF705BF9D
:10162000704700BFBC0E0020A52E5AE208B5044842
:1016300000F060FB034B58600223437008BD00BFFD
:101640003C0F0020BC0E0020064B1A88064B0120E0
:10165000904204D853F8041F11B10130F8E700207C
:10166000704700BFDC3C0008440C002030B500246B
:10167000012504704570817044608460C460046119
:101680008482C4820483448380F820401146BDE8EC
:10169000304000F013BD0000024B5860022343703D
:1016A000704700BFBC0E002070B5044618B9BDE8F5
:1016B0007040FFF7BBBF0B4DA278286883789A4231
:1016C0004FF0010607D900F027FB2B685E7002235C
:1016D0006C60637070BD667021460348BDE8704061
:1016E00000F0F0BABC0E00203C0F002038B50D46CB
:1016F000014678B14FF6FF739842074C02D020683C
:1017000000F014FB236805485D7000F0F3FA022333
:101710006060437038BD00BFBC0E00203C0F00204D
:10172000024B186800B1C078704700BFBC0E0020A3
:1017300010B588B9174B1B689970174843689B7898
:101740008B4222D9134C216800F0BCFA2368012295
:101750005A70FFF76BFF18E0104B1B88984216D8A1
:1017600001380F4B53F820408CB10A4BA1701B6815
:101770009C42E2D0204600F051FB6378012B04D15B
:10178000054800F0B7FAFFF78FFF002010BDFF20DB
:1017900010BD00BFBC0E00203C0F0020DC3C000848
:1017A000480C002070B5184D18B12B68DB789842B2
:1017B00014D12B6800245C702E6800F0C6F9B0626A
:1017C000FFF71EFF2A681149D3782C60013B41F8CE
:1017D0002340D462FFF72AFF204670BD0C4B1B88C4
:1017E00098420FD8441E094E56F8245055B1284649
:1017F00000F0FEFA284600F02BFB002046F82400FB
:10180000E86270BDFF2070BDBC0E0020480C0020B7
:10181000DC3C000810B5284B1A880023934205D2FF
:101820002649002041F823000133F7E7244C254ADC
:10183000FF23E370244B1B8863622046234BE36243
:101840000021FFF713FF224A002304211170536087
:10185000204A1170D360136193821F4A14600222E0
:1018600062701E4A137053701D4B1B78D370FFF7C4
:101870000DFE1C4B1A6842F47F021A601B681B02A3
:1018800003F07F43DB43B3FA83F3174A1748126828
:10189000DBB2C3F10803C2F302229A42A8BF531C71
:1018A0006FF08071026801FA03F303F07F4122F0C8
:1018B0007F430B43036010BDDC3C0008480C002054
:1018C000C40E002029140008E43C0008A40C0020E9
:1018D0003C0F0020240F0020BC0E0020C40B002071
:1018E000E63C000820ED00E00CED00E01CED00E01F
:1018F00008B5FFF74BFE0C4B0028186012DB00F117
:10190000604000F56440FF2202701A6853119B008A
:1019100003F1604303F5614302F01F02012101FA64
:1019200002F21A6008BD00BFB40E002010B590F995
:1019300000300133044604D1064807493F2200F035
:1019400017FFA3681A6863681A4214BF01200020B9
:1019500010BD00BFF03C0008083D000838B590F904
:101960000030013304460D4604D1064806493522AD
:1019700000F0FEFE63680DB1E26800E022699BB2F0
:10198000138038BDF03C0008083D000808B5074842
:10199000FFF7CCFFB0FA80F104484909FFF7DEFFFA
:1019A0004FF47A7000F0ADF8F1E700BF0C0F0020A3
:1019B00000B597B04FF4006300220093019202A893
:1019C0000849134600F058F80748FFF7AFFFB0FA90
:1019D00080F105484909FFF7C1FF4FF4FA7000F0A4
:1019E00090F8F1E78D190008F80E002038B50B4C7F
:1019F00014252A462046002101F04EFB2046084CC3
:101A0000002100F0DDFE204600212A4601F044FBC3
:101A100020460121BDE8384000F0D2BEF80E00207B
:101A20000C0F002010B5038B42781943062A044698
:101A30000183438B04D101EA03029A4219D105E0E4
:101A4000052A16D111EA030213D0428321EA0301C9
:101A50002183204600F0FCF9012320466370082111
:101A6000628B00F05CFB21460248BDE8104000F0AC
:101A700029B910BD3C0F002070B5059D04461646DF
:101A800004980F4A2260A160A381206115B16561AD
:101A900000230AE08008B0F1FE5F94BF80004FF0A1
:101AA000FF3001F083F80123606184F84C3004F1C9
:101AB0000800314600F060FC6060204670BD00BF49
:101AC000783D0008406800F075BC000010B5074B79
:101AD00003600446FFF7F6FF94F84C301BB16069D1
:101AE00008B101F061F8204610BD00BF783D000844
:101AF00010B50446FFF7EAFF204601F04AF82046F9
:101B000010BD00F06DBC000010B542687AB100F065
:101B1000F1F8044600F09CF901216170204600F0C4
:101B2000F5FA21460448BDE8104000F0CBB84288E1
:101B30000132428010BD00BF3C0F00200321FFF79F
:101B4000D5BD000080F309887047EFF30980704726
:101B5000684680F3098855480078C00714BF022002
:101B6000032080F314887047DFF844C1EFF3058346
:101B70001B0618BF6047EFF31483DB0708BF6047FD
:101B800000DF7047DFF82CC1EFF305831B0618BF99
:101B90006047EFF31483DB0708BF604700DF70473F
:101BA000EFF30980816911F8021C99BB90E80F10CE
:101BB00010B5E047BDE81040EFF3098C8CE8070052
:101BC0003D4B93E80600914208BF704781B11EF07B
:101BD000100F06BF2CED108A0120002081F8200094
:101BE0002CE9F00FC1F828C00CB4FFF709FD0CBCBC
:101BF0001A60D2F828C0BCE8F00F92F82000002844
:101C00001ABFBCEC108A6FF0120E6FF0020E8CF34C
:101C10000988704710B5294A1268914209D8284CA2
:101C200054F8214090E80F10A047EFF3098C8CE89E
:101C30000F0010BD10B5FFF76FFCBDE810401E4B44
:101C400093E80600914208BF7047EFF3098C1EF03D
:101C5000100F06BF2CED108A0120002081F8200013
:101C60002CE9F00FC1F828C00CB4FFF7C9FC0CBC7C
:101C70001A60D2F828C0BCE8F00F92F820000028C3
:101C80001ABFBCEC108A6FF0120E6FF0020E8CF3CC
:101C90000988704710B5FFF793FCFFF7CEBF10B56A
:101CA000FFF78CFCFFF78CFCFFF7C7BFDE3C00089A
:101CB000352100084F210008BC0E00200000000064
:101CC000FCFFFFFF30B502788C784368013AD2B24E
:101CD0002BB19D78A54202D318465B68F8E7022A2B
:101CE0004B60416003D803B19960886030BD002328
:101CF0008B6030BD43685A6842600278013A022A1C
:101D00004FF0000205D8596809B188605A609A609E
:101D100000E05A6018467047034B5A684260002240
:101D200082605860704700BF3C0F002010B5114B17
:101D3000DA680AB19A8A0CE000248A1AC460D86072
:101D400003619A82848210BD002CF5D0A38A1A44C4
:101D500023468A42DC68F7D3C460D860C468036154
:101D600004B12061521A92B28282998A8A1A9A82A6
:101D700010BD00BF240F002038B51A4DEB68002BB2
:101D80002ED0AB8A013BAB82AB8A002B28D1154AFF
:101D9000D4682CB3A26842B161685160626812B124
:101DA000A168916063600023A3600F482146FFF79C
:101DB00089FFA38AAB826378042B01BF0B4B1A689F
:101DC000E38A9B1808BFA38201236370E368EB607A
:101DD000E268002312B103491161E3602361D3E794
:101DE00038BD00BF240F00203C0F0020200F002032
:101DF000836853B9084B5A68824202D142685A60DC
:101E000070471346002AF6D1704742685A6043680B
:101E10000BB182689A6070473C0F002038B5846827
:101E2000054624B94378012B0ED1084C03E02378F2
:101E30000BB9A468FBE72846FFF7DAFF20462946DE
:101E4000BDE83840FFF73EBF38BD00BF3C0F002063
:101E500003697BB1C268DA60C26842B19A8A818A3A
:101E60000A449A82C26813610023C36000E09A8228
:101E7000002303617047000030B50E4BDD78EFF3AF
:101E8000108272B69A78AA4207D201329A701A78F2
:101E9000541CAC4208BF00241C7062B6AA4204D293
:101EA00003EBC2035860996030BD0220BDE83040AA
:101EB000FFF7BBBAC40B0020012310390370890857
:101EC0000023437083704360038143818381C18118
:101ED0007047000038B5838904461546002B36D07C
:101EE0004389043350F823300B604389C28901339E
:101EF0009BB29A42438104BF002343814368EBB104
:101F00004378022B1AD1FFF7F5FE0021054600F0B9
:101F1000FDF82389E9691A1D013344F82210E2898A
:101F20009BB29A42238108BF0023284608BF238121
:101F3000FFF78EFF2846FFF7B7FB06E0EFF31083AD
:101F400072B6A389013BA38162B6002038BD82B17D
:101F50004268094B1AB11968FFF7B4FE05E01B6827
:101F600043605A6098600123437028460821FFF7B8
:101F7000BDFB012038BD00BFBC0E0020C289808996
:101F8000101A704708B5FFF777FFBDE80840FFF764
:101F9000B1BA10B583890446EBB14389043350F8D4
:101FA00023300B604378022B04D10021FFF764FF3C
:101FB000FFF7A0FAEFF3108372B6A389013BA38168
:101FC00062B66389E28901339BB29A42638104D18C
:101FD0000023638101E0184610BD042010BD0000FD
:101FE00070B5426804460E46002A4AD04578022D54
:101FF0001CD0032D0AD0012D5DD1FFF77BFE0446D6
:102000001021324600F08BF8657034E0084600F08D
:1020100091F8054600284ED02046FFF76BFE294672
:10202000044600F073F80123637024E0FFF762FEBA
:102030000021054600F06AF82389E9691A1D44F871
:102040002210EFF3108272B6A2890132A28162B629
:10205000E28901339BB29A42238104BF002323818A
:10206000012328466B70FFF7F3FE13482946BDE8AD
:102070007040FFF727BE2046FFF7EAFE0E482146D4
:10208000F5E78189C089814210D223891D1D44F85A
:102090002560EFF3108572B60131A18162B601337C
:1020A0009BB2834214BF2381228170BD0320BDE80F
:1020B0007040FFF7BAB970BD3C0F0020436AC26A96
:1020C00023F0030313445A0748BF043B4FF08072C8
:1020D00070B503E90600A3F14004A3F14402A3F1A3
:1020E0000C05002642F8046FAA42FAD1C26943F8EF
:1020F000202CC3788462012B1CBFC36A024A01638F
:1021000018BF1A6070BD00BFA52E5AE290F82020BB
:10211000836A0AB1603300E020331960704710B55C
:1021200090F82040836A0CB1603300E0203383E8EC
:10213000060010BDEFF3108372B6026803F00103CE
:102140000AB11168016003B962B610467047814256
:102150000DD3436899420AD2EFF3108372B6026836
:102160000A60016013F0010003D162B670470120DC
:1021700070470020704738B1830704D10378002BE3
:1021800018BF0020704700207047000000B5DFF83E
:102190000CC000DFDFF808C000DFFEE745230008C1
:1021A0005D23000830B50B4A1368002433B11D8944
:1021B000A94203D31C46491B1B68F7E789B2036099
:1021C000018113B11D89691A19810CB1206030BDDC
:1021D000106030BD580F0020431C11D00B4B9842AB
:1021E00011D80B4B1B684FF47A715A1E01FB00206B
:1021F000B0FBF3F04FF6FE73984228BF18467047C5
:102200004FF6FF7070474FF6FE70704700093D00B3
:10221000E03C000838B5084C257855B9FFF7FAFAC4
:10222000064B1B68FF229A702846FFF700F901232E
:102230002370002038BD00BF540F0020BC0E0020CA
:1022400010B5EFF305845CB9EFF31484E40703D40D
:10225000BDE81040FFF7DEBFDFF808C000DF10BDAB
:10226000822010BD1522000810B588B0EFF3058458
:1022700034BBEFF3148404F00304022C0CD0032CC1
:1022800016D0012C1ED008AC84F309880F4C24789A
:10229000E40705D5022404E00C4C2478E4070BD4B1
:1022A000032484F31488BFF34F8FBFF36F8F03E0D1
:1022B000064C2478E40705D4DFF814C000DF02E000
:1022C000822000E0FF2008B010BD00BFDE3C000807
:1022D000B12400082DE9F8438946044650B103684B
:1022E00043B18588EB1C9BB2062B03D883680BB1E6
:1022F000C2682AB98020FFF79AF80020BDE8F88369
:102300004363C26300F11006FFF79EF90B4F00F123
:10231000FF38291D47F82860C9B22268E074C4F864
:102320002C903046FFF7A2F93046FFF7BDF957F879
:102330002800034A836A5A63BDE8F883480C0020EA
:102340008D21000808B5FFF7EBF918B10138024BF1
:1023500053F8200008BD00BF480C002008B5FFF767
:102360000AFF38B1C078FFF71DFAFF280CBF8120A3
:10237000002008BD802008BD70B505460C46EFF36F
:10238000058686B9EFF31486F60706D4074E36782D
:102390001EB9BDE87040FFF79DBF28462146DFF813
:1023A00010C000DF70BD002070BD00BF5C0F0020BA
:1023B000D522000810B5EFF305841CB9DFF808C07A
:1023C00000DF10BD822010BD5D23000808B530B1CC
:1023D000FFF702FF80B2FFF7B1FB402008BD08BD48
:1023E00010B5EFF305841CB9DFF808C000DF10BD9D
:1023F000822010BDCD230008830704D128B10369D2
:10240000C1681B6803E0002300E003461946184634
:1024100070470000F8B5134B1C681F460CB32389A6
:10242000013B23812389E3B90F4B26681D683E6079
:1024300055B12B78012B07D12846FFF79FFD18B126
:1024400028462146FFF79EFD6379012B04D12046E3
:102450006189FFF7A7FE01E0012323710EB1344625
:10246000E0E7F8BD580F0020A80E002010B5044684
:102470000846DFF80CC000DF84E80300204610BDEA
:10248000F923000810B5044618B1016809B1406885
:1024900020B98020FEF7CBFF002010BD0378002B71
:1024A000F7D10431890089B2FFF706FD606810BDDD
:1024B00038B5104D2C78D4B921460F48FFF7E2FF0C
:1024C0000E4B214618600E48FFF704FF0D4B2146C6
:1024D00018602046FFF72CF90B4A13689B6A2033DB
:1024E00083F309881460FFF703FA01232B7000209F
:1024F00038BD00BF5C0F0020E0010020A80E0020C6
:10250000E8010020A40E0020BC0E00202DE9F04FB1
:102510000C4685B08046E8B10378012B1FD10846F0
:10252000FFF75AFE02A982B24046FFF7D3FC01280A
:1025300006D10020002C0246034618BF402003E0CD
:102540000020024603461020029904460D46164616
:102550001F4608E0802405460646074603E000259E
:1025600080242E462F462046294632463B4605B05B
:10257000BDE8F08F7FB5044616460846EFF30581A7
:10258000A9B101AD00B10AB180230AE00378012BA3
:10259000FAD102A9FFF7FDFC042801D0019601E061
:1025A0001023019395E8070084E8070005E0114631
:1025B000DFF80CC000DF84E80700204604B070BDDF
:1025C0000D2500087FB50A4B03A819684FF0FF32AC
:1025D000FFF7D0FF039B102BF5D101A80499FFF75B
:1025E00045FF019B002BEED002989847EBE700BF18
:1025F000A80E0020F0B4114B90F919700668856898
:10260000C468016942691E6001374FF000065D60D1
:102610009C60D9601A619E610AD090F91820074821
:1026200001320CBF04220C22F0BC5A61FEF72ABD15
:10263000082202485A61F0BCFEF724BD8410002035
:10264000F8B504460E4608463449154600F010F920
:1026500033490746284600F00BF90146384600F09A
:10266000F5F8411C206051D02E4B98423CD003F528
:102670008063984230D0A3F55043984224D030462E
:10268000264900F0C1F82846254900F0BDF8721C23
:1026900003D03046012100F007FA6B1C03D0284616
:1026A000012100F001FA00234FF41652A260E3600A
:1026B00023616361267665762046FFF79BFF1A4A01
:1026C0002368934218D0F8BD184B196C012241F4CD
:1026D000003119646260D2E7144B596C052241F055
:1026E000200159646260CAE7104B596C002241F026
:1026F000100159646260C2E70D4B0E482146012467
:102700001C601C22BDE8F84000F0BBBC0A480B4925
:10271000502200F02DF82068A6E700BF503F0008C7
:10272000083F00080010014000440040003802400B
:10273000600F0020C0100020803D00089C3D000874
:10274000026813689B06FCD5024B50681A60C0F300
:102750000800704784100020026813681B06FCD52F
:10276000024BC1F3080151601A60704784100020C9
:1027700010B5084B1B6882B0DC6800920B4602461D
:102780000549204600F0BAFB02B0BDE81040FEF754
:102790008DBA00BF8C020020043E00080FB400B5C3
:1027A000064B83B004AA1B6852F8041BD868019238
:1027B00000F044FE012000F00FFA00BF8C02002060
:1027C00038B50D46044600F0BBF8013510D094F939
:1027D000003001330DD02369A2881A8020460121E0
:1027E00000F0CAF820460021BDE8384000F0C0B82B
:1027F00038BD034803493522FFF7BAFFEBE700BFB6
:10280000383E0008503E0008431C10B5044619D05D
:1028100091F90030581C04D10FE011F90C3F5A1CFB
:102820000BD09C42F9D12046896800F00DF9204672
:102830000021BDE8104000F037B90348BDE8104062
:10284000FFF7ACBF10BD00BFC03E0008884208B50E
:102850000AD0431C07D0013106D00448FFF79EFF81
:102860004FF0FF3008BD084608BD00BFD43E000849
:1028700008B5431C0DD091F900305A1C04D109E071
:1028800011F90C3F5A1C05D09842F9D14868411CF7
:1028900000D008BD0248FFF781FF4FF0FF30F8E796
:1028A000E83E000870B500F05BF90E4C0E4E236850
:1028B00073B11D6800F032F9281A00280CDC216879
:1028C00032688B682360002AF2D048689047EEE7B0
:1028D000BDE8704000F03AB92368BDE87040186860
:1028E00000F02AB9640F0020680F002038B50546B3
:1028F00000F014F9044600F011F9001BA842FAD3C5
:1029000038BD00BF4FF47A7303FB00F0FFF7EEBF52
:10291000431C10B5044608D02046002100F094F86E
:1029200004F00F040120A04010BD034803492722F2
:10293000FFF71EFFF0E700BF983F0008AC3F00081C
:1029400070B504464B1C0D46217010D0C1F3031026
:1029500000F032F806462846FFF7DAFF06F11002CB
:1029600006F118031A366060A260E360266170BD4C
:1029700090F9000000F098B838B5054690F90000CD
:10298000431C0C460BD0012C04D00021BDE838407C
:1029900000F05AB82146BDE8384000F055B8044868
:1029A00004494722FFF7E4FE95F90000EBE700BF7A
:1029B000383E0008AC3F000808B507282FD8DFE8EC
:1029C00000F00B121920272E2E04174B17481A6BF4
:1029D00042F080021A6308BD134B15481A6B42F08F
:1029E00001021A6308BD104B12481A6B42F0020232
:1029F0001A6308BD0C4B10481A6B42F004021A63AC
:102A000008BD094B0D481A6B42F008021A6308BD55
:102A1000054B0B481A6B42F010021A6308BD0948B7
:102A2000FFF7BCFE002008BD00380240001C024039
:102A3000000002400004024000080240000C024076
:102A4000001002404840000830B5431C87B00546DE
:102A50000C461CD0C5F30310FFF7AEFF05F00F05C1
:102A600004F00F0201210D4B01FA05F553F8223055
:102A700001950322C4F3021501A9C4F3C314029300
:102A8000039505940492FDF7D5FF07B030BD0448C7
:102A900004497D22FFF76CFEDCE700BF144000080C
:102AA000983F00086C40000838B5431C04460D46AA
:102AB00018D0C4F30310FFF77FFF04F00F04C268BF
:102AC000022D4FEA44044FF0030198BFA54001FADC
:102AD00004F422EA0404C460C26888BF00251543D8
:102AE000C56038BD02480349A222FFF741FEE0E776
:102AF000983F00086C400008054B186800B170470B
:102B0000044A0549116001221A60FDF741BF00BF68
:102B1000A80F00206C0F0020000C004008B5044BEB
:102B20001B680BB9FFF7E8FF024B586A08BD00BFEE
:102B3000A80F0020000C0040034B1B685863DA68A4
:102B400042F00202DA6070476C0F0020034B1B68F2
:102B5000DA6822F00202DA60704700BF6C0F0020D2
:102B6000024B1B686FF002021A6170476C0F002065
:102B700010B5002814BF04460124204600F062FA74
:102B800030B900F009F808B900F012F88047F4E70E
:102B900010BD00F05FBA0000024B1868BFF35F8FF2
:102BA000704700BFAC0F0020FFF7F3BFFFF7E0BF97
:102BB00008B5062000F018FE0120FEF7EFFB0146E5
:102BC00000200246034600F041BF0000014B186898
:102BD000704700BF8C02002008B5074B044613B1B4
:102BE000002100F08FFF054B1868836A03B19847F6
:102BF0002046FEF7D3FB00BF053B0008304100082C
:102C00008A892DE9F041054610070C4657D44B68D8
:102C1000002B02DC0B6C002B18DDE66AB6B102F467
:102C20008052002392B22F682B600AB1626D10E0CF
:102C3000216A28460123B047411C024609D12B686E
:102C40003BB11D2B01D0162B47D12F600020BDE8D2
:102C5000F081A3895B0705D56368D21A636B0BB15A
:102C6000236CD21AE66A216A00232846B047461C24
:102C7000A38905D12A681AB11D2A01D0162A19D1B3
:102C800000226260D9042269226004D5421C01D16D
:102C90002B6803B96065616B2F600029D6D004F101
:102CA0004403994202D0284600F0FEF900206063F8
:102CB000BDE8F08143F04003A381BDE8F0810F69D6
:102CC000002FC3D093070E6808BF4B690F6018BF71
:102CD0000023C7EB06088B6012E0A38943F0400392
:102CE000A3814FF0FF30BDE8F0812846216AA66A33
:102CF0003A464346B0470028EFDD0744C0EB0808DA
:102D0000B8F1000FF1DCA1E738B50B6905460C46B8
:102D1000DBB118B183690BB900F072F80C4B9C421F
:102D200001D16C6808E00B4B9C4201D1AC6803E018
:102D3000094B9C4208BFEC68B4F90C302BB1284613
:102D40002146BDE83840FFF75BBF002038BD00BF1B
:102D5000D0400008F040000810410008014620B9AA
:102D6000044B0549186800F0DBB8044B1868FFF7FE
:102D7000CBBF00BF30410008092D00088C020020A5
:102D8000014900F0CDB800BF092D0008002310B59F
:102D9000044603604360836081814366C2810361AE
:102DA0004361836119465C30082200F075F9054BD8
:102DB0006362054BA362054BE362054B2462236308
:102DC00010BD00BF21380008433800087B380008D8
:102DD0009F38000870B568234D1E5D430E4605F10F
:102DE000740100F0A5F9044640B1002180E84200DA
:102DF0000C30A06005F1680200F04EF9204670BD6D
:102E0000836910B5044633BB8364C3640365124B06
:102E1000124A1B688262984204BF0123836100F05A
:102E20001FF86060204600F01BF8A060204600F00C
:102E300017F80421E06000226068FFF7A7FFA06890
:102E400009210122FFF7A2FFE06812210222FFF709
:102E50009DFF0123A36110BD30410008812D0008B2
:102E6000F8B51B4B1E68B369074613B93046FFF728
:102E7000C7FF4836B4687368013B04D4B4F90C50FA
:102E800075B16834F8E733682BB938460421FFF789
:102E9000A1FF306008B13668ECE70C233B60F8BD59
:102EA0004FF6FF73E3810123A38165662560A5606A
:102EB000656025616561A56104F15C002946082211
:102EC00000F0EAF86563A563A564E5642046F8BDF3
:102ED0003041000838B5074B074CE41AA4101D46D2
:102EE00024B1013C55F824309847F9E7BDE8384053
:102EF00000F0DEBE980200209C0200200EB403B554
:102F0000014603AB054853F8042B0068019300F019
:102F10008DF902B05DF804EB03B070478C0200201D
:102F20002DE9F8438046894600F14804002694B113
:102F3000A5686768013F0CD4AB89012B07D9B5F9A7
:102F40000E30013303D040462946C8470643683552
:102F5000F0E72468EBE73046BDE8F88370B50E4B28
:102F60000E4CE41AA41000251E46A54204D056F8C3
:102F7000253098470135F8E700F094FE084C094BDE
:102F8000E41AA41000251E46A54204D056F82530A8
:102F900098470135F8E770BD9002002090020020AC
:102FA0009802002090020020F0B58B899D0791B017
:102FB00006460C4626D4B1F90E10002909DAA38979
:102FC00013F0800F4FF0000514BF40274FF48067C7
:102FD0000DE001AA00F010FE0028F0DB029D05F4D0
:102FE0007045A5F500514D424D414FF48067304684
:102FF000394600F09DF860B9A3899A051DD443F0C5
:103000000203A38104F14703236023610123636169
:1030100013E00B4BB362A389206043F08003A381CC
:10302000206167614DB13046B4F90E1000F0F6FD35
:1030300018B1A38943F00103A38111B0F0BD00BF13
:10304000812D0008024B0146186800F071B800BFDE
:103050008C020020024B0146186800F025B800BF22
:103060008C02002010B5C9B202449042034606D03B
:103070001C788C4200F10100F7D1184610BD0020E9
:1030800010BD10B5431E0A44914204D011F8014B03
:1030900003F8014FF8E710BD02440346934202D003
:1030A00003F8011BFAE7704730B500293DD051F80D
:1030B000042C0B1F1D49002AB8BF9B180A680C4638
:1030C00012B95A600B6030BD93420DD2196858187E
:1030D000904201BF5A5852181A6042685A602360E1
:1030E00030BD994203D80A4651680029F9D11468C5
:1030F00015199D420AD11B682344D01888421360D9
:1031000013D10868034413604B680DE002D90C2307
:10311000036030BD1C681819884204BF08684968FC
:10312000596004BF00191860536030BDB40F00200F
:1031300070B5CC1C24F0030408340C2C38BF0C24CC
:10314000002C064603DA0C233360002070BD8C424D
:10315000F9D3204A136810461946A1B10A68121B18
:103160000ED40B2A03D90A608B188C501FE08B42B7
:103170000DBF5A684A685A60026018BF0B4616E0D5
:103180000B464968E9E7144D2B681BB9304600F03F
:10319000F3FA28603046214600F0EEFA421C03465E
:1031A000D1D0C51C25F0030585420AD11C6003F16E
:1031B0000B001A1D20F00700821A0AD051429950C4
:1031C00070BD3046E91A00F0D7FA0130BBD02B466B
:1031D000ECE770BDB40F0020B00F00209368013BF6
:1031E000002B10B5936009DA9469A34202DBCBB2DD
:1031F0000A2B03D1BDE8104000F056BB1368581CE1
:1032000010601970C8B210BDF8B506460F461446D6
:10321000D518AC4208D0304614F8011B3A46FFF7E7
:10322000DDFF431CF5D100E00020F8BD2DE9F0439F
:103230009DB00D4690460393064618B183690BB9BD
:10324000FFF7DEFD754B9D4201D1756808E0744BB8
:103250009D4201D1B56803E0724B9D4208BFF568FD
:10326000AB891C070AD52B6943B10023099320239E
:103270008DF8293030238DF82A3041E03046294638
:1032800000F078FB0028F0D04FF0FF30C2E0039A46
:10329000111D12680391002ABBBF524243F0020382
:1032A00007920792B8BF0493013423782E2B7BD06A
:1032B000DFF88081217840460322FFF7D3FE38B142
:1032C000049AC8EB00004023834013430493013465
:1032D000217855488DF82810062204F10108FFF7DF
:1032E000C1FE002800F08580504B002B78D1039B55
:1032F000073323F0070308330393099B3B440993E7
:1033000043461C4613F8012B1AB9B4EB08090ED03A
:1033100002E0252AF5D1F8E73046294642464B46D9
:10332000FFF772FF013070D0099B4B44099323785B
:10333000002B6AD000234FF0FF32049307930592CD
:1033400006938DF853301A9304F101084446DFF8D0
:10335000E890217848460522FFF784FE08F101082D
:10336000049B30B1C9EB0000012282401343049357
:10337000ECE7D80644BF20228DF85320190744BF3C
:103380002B228DF8532022782A2A80D007992346B1
:103390001C4601332278303A092A03D80A2000FB60
:1033A0000121F5E7079180E763782A2B0AD1039B77
:1033B0001A1D1B680392002BB8BF4FF0FF33023475
:1033C000059375E7611C00220C4601312378303BE0
:1033D000092B03D80A2000FB0232F5E7059267E7C4
:1033E00003AB0093304604A92A46114BAFF300808B
:1033F00007E003AB0093304604A92A460C4B00F0CB
:10340000A1F8421C07467FF478AFAB895B063FF515
:103410003BAF09981DB0BDE8F08300BFD040000865
:10342000F0400008104100083E4100080000000084
:10343000093200083A4100083441000830B513460B
:10344000044A05460C46106829462246BDE830402D
:10345000FFF7ECBE8C0200202DE9F84391461F4691
:103460008A680B69DDF820809342B8BF1346C9F81B
:10347000003091F8432006460C4612B10133C9F8DA
:1034800000302368990642BFD9F800300233C9F8EA
:103490000030256815F006051CD094F843302268EA
:1034A000003318BF012392061FD5E1185A1C3020A3
:1034B00081F84300224494F8451082F84310023307
:1034C00013E03046394604F119020123C0470130A8
:1034D00007D00135E368D9F800209B1A9D42F0DB44
:1034E000DBE74FF0FF30BDE8F8833046394604F1A2
:1034F0004302C0470130F4D02268D9F80050E36895
:1035000002F00602042A08BF5D1B2269A3680CBFF3
:1035100025EAE57500259342C4BF9B1AED184FF0CC
:103520000009A9450ADA3046394604F11A02012396
:10353000C0470130D5D009F10109F2E70020BDE80C
:10354000F88300002DE9FF410C461746227E6E2AC3
:10355000984606460A9B01F1430100F0A98012D863
:10356000632A23D00AD8002A00F0B680582A40F0F7
:10357000C58084F84520DFF8F8E151E0642A1ED0C8
:10358000692A1CD0BAE0732A00F0AA8009D86F2AF1
:103590002BD0702A40F0B280226842F020022260D4
:1035A00039E0752A21D0782A35D0A7E01A68111D94
:1035B0001960136884F8423004F14205A2E02068E3
:1035C0001A6810F0800F03D0101D1860136805E012
:1035D0004506F9D5101D1860B2F90030002B3BDA12
:1035E0002D225B4284F8432036E020681A6810F0F0
:1035F000800F03D0101D1860136804E04006F9D551
:10360000101D18601388227EDFF864E16F2A0CBF5A
:1036100008220A221CE07822DFF858E184F84520CD
:103620002268186812F0800F00F104051D6001D0B7
:10363000036802E05506FBD50388D00744BF42F07B
:10364000200222601BB9226822F020022260102290
:10365000002084F8430002E0DFF814E10A226568E4
:10366000A560002DA2BF206820F00400206003B9EF
:1036700065B10D46B3FBF2F002FB10331EF80330C8
:1036800005F8013D03460028F4D100E00D46082A64
:103690000BD12368DA0708D5236962689A42DEBF36
:1036A000302305F8013C05F1FF35491B21612EE06F
:1036B00025681A68606915F0800F03D0151D1D601C
:1036C000136808E015F0400F02F104051D6013684F
:1036D00001D0188000E01860002323610D4616E039
:1036E0001A68111D19601568626828460021FFF7E5
:1036F000B9FC08B1401B6060636804E004F1420556
:1037000084F8422001232361002384F84330CDF85C
:1037100000803046214603AA3B46FFF79DFE01305C
:1037200002D14FF0FF301FE0304639462A46236968
:10373000C0470130F5D023689B0705D4E068039BA0
:103740009842B8BF18460FE00025E368039A9B1A19
:103750009D42F3DA3046394604F119020123C0478D
:103760000130DED00135F0E704B0BDE8F08100BFE4
:10377000454100085641000838B5064C002305466F
:1037800008462360FDF7F6FD431C02D1236803B110
:103790002B6038BDDC1000201F2938B504460D46CB
:1037A00004D9162303604FF0FF3038BD426C12B1CC
:1037B00052F821304BB9204600F030F82A46014635
:1037C0002046BDE8384000F017B8012B0AD0591C3C
:1037D00003D116230360012038BD002442F82540A0
:1037E00028469847002038BD024B01461868FFF76D
:1037F000D3BF00BF8C02002038B5074C002305461C
:1038000008461146236000F045FA431C02D12368A4
:1038100003B12B6038BD00BFDC10002000F032BACD
:1038200010B50C46B1F90E1000F01AFA0028ABBF23
:10383000636DA3891B1823F48053ACBF6365A38118
:1038400010BD2DE9F0411D468B89DB0507460C466E
:10385000164605D5B1F90E100022022300F0EEF94C
:10386000A389B4F90E1023F48053A381384632465D
:103870002B46BDE8F04100F06BB810B50C46B1F92D
:103880000E1000F0DBF9431CA38915BF606523F41B
:10389000805343F48053A38118BFA38110BDB1F9B5
:1038A0000E1000F099B9000070B50D46144606469A
:1038B00018B183690BB9FFF7A3FA224B9C4201D1DF
:1038C000746808E0204B9C4201D1B46803E01F4BB0
:1038D0009C4208BFF468A369A360A3891A0709D5AD
:1038E00023693BB123682069181A63699842EDB2D5
:1038F0000FDB08E03046214600F03CF80028F1D00C
:103900004FF0FF3070BD30462146FFF7FDF900282B
:10391000F6D1A368013BA36023685A1C22601D7086
:1039200063690130984204D0A389DB0707D50A2DCB
:1039300005D130462146FFF7E7F90028E0D12846B7
:1039400070BD00BFD0400008F040000810410008E2
:1039500038B5074C054600202060084611461A4637
:10396000FDF776FC431C02D1236803B12B6038BD00
:10397000DC100020314B70B51D6806460C4625B1A1
:10398000AB6913B92846FFF73BFA2D4B9C4201D196
:103990006C6808E02B4B9C4201D1AC6803E02A4BD9
:1039A0009C4208BFEC68A3899AB211071DD4D506C2
:1039B00002D40922326038E0500712D5616B41B160
:1039C00004F14403994202D03046FFF76DFB002317
:1039D0006363A38923F02403A38100236360236925
:1039E0002360A38943F00803A38123694BB9A3890A
:1039F00003F42073B3F5007F03D030462146FFF770
:103A0000D3FAA38913F0010205D00022A2606269F3
:103A10005242A26103E0990758BF6269A26022691D
:103A20004AB903F0800080B230B143F04003A38173
:103A30004FF0FF3070BD002070BD00BF8C02002031
:103A4000D0400008F0400008104100082DE9F8437C
:103A5000294D2C6806460F46914698460CB9274CCE
:103A60002C6063681F2B14DD254B1BB94FF0FF3012
:103A7000BDE8F8838C20FFF7E5FA04460028F5D06E
:103A800000232A68026043602860C0F888303EB98D
:103A900028E03EB3D4F8880078B9194B002BE5D064
:103AA0004FF48470FFF7CEFA0028DFD00023C0F86F
:103AB0000031C0F80431C4F88800626840F82290F0
:103AC0000123934000EB8201D0F800211A43022E1B
:103AD000C0F80021C1F8808002BFD0F80421134350
:103AE000C0F8043163685A1C02336260002044F855
:103AF0002370BDE8F88300BF44100020B80F0020F9
:103B0000453000082DE9F74F80460F46304E3468A7
:103B1000002C59D06568D4F8889005F1FF3AAD00C3
:103B200009EB050B04352544BAF1000F38DB37B13A
:103B3000B9F1000F2ED0DBF87C20BA422AD161689F
:103B40002A6801398A4516BF0021C4F804A02960FB
:103B500002B363680193B9F1000F06D00121D9F8CF
:103B6000000101FA0AF1014201D190470BE0D9F8B6
:103B70000401014204D140465BF8041C904702E076
:103B80005BF8040C90476268019B9342BED1326897
:103B9000A242BBD10AF1FF3AABF1040B043DC3E7EB
:103BA0000C4B8BB1626823685AB953B13360B9F1D9
:103BB000000F02D04846FFF74DFA2046FFF74AFAB9
:103BC000A5E726461C46A3E703B0BDE8F08F00BF7B
:103BD000441000205530000838B5064C0023054637
:103BE00008462360FDF71EFB431C02D1236803B186
:103BF0002B6038BDDC10002038B5074C002305468B
:103C0000084611462360FDF799FB431C02D1236847
:103C100003B12B6038BD00BFDC10002038B5064C66
:103C20000023054608462360FDF760FB431C02D1D4
:103C3000236803B12B6038BDDC10002038B5074C79
:103C4000054600202060084611461A46FDF762FB33
:103C5000431C02D1236803B12B6038BDDC10002067
:103C600038B5074C054600202060084611461A4624
:103C7000FDF716FB431C02D1236803B12B6038BD4E
:103C8000DC100020024B58221A604FF0FF307047C2
:103C9000DC100020024B58221A604FF0FF307047B2
:103CA000DC100020F8B500BFF8BC08BC9E46704789
:103CB000F8B500BFF8BC08BC9E4670470000000085
:103CC00001020304010203040607080900000000C2
:103CD0000000000001020304060708090F000100AC
:103CE000E8030000800010001F48010005000100EB
:103CF0006F626A2D3E70696E20213D202850696EEA
:103D00004E616D65294E4300443A5C4D79446F63C2
:103D1000756D656E74735C4769744875625C536554
:103D20006E736F722D426F6172645C6D6265645C6C
:103D30005441524745545F4E55434C454F5F4634BE
:103D4000303152455C5441524745545F53544D5CA9
:103D50005441524745545F53544D333246342F67D4
:103D600070696F5F6F626A6563742E68000000009F
:103D70000000000000000000CD1A0008F11A000841
:103D80006F626A2D3E7561727420213D2028554175
:103D900052544E616D65294E43000000433A5C4326
:103DA0006F64655C6769745F7265706F5C67697486
:103DB0006875625C6D6265642D6F666669636961D2
:103DC0006C5C6C69627261726965735C6D6265647A
:103DD0005C746172676574735C68616C5C544152B9
:103DE0004745545F53544D5C5441524745545F53CB
:103DF000544D333246345C73657269616C5F617037
:103E0000692E63006D62656420617373657274610D
:103E100074696F6E206661696C65643A2025732C45
:103E20002066696C653A2025732C206C696E6520CC
:103E30002564200A000000006F626A2D3E70696EE2
:103E400020213D202850696E4E616D65294E43004A
:103E5000433A5C436F64655C6769745F7265706F59
:103E60005C6769746875625C6D6265642D6F666617
:103E7000696369616C5C6275696C645C6D626564E0
:103E80005C5441524745545F4E55434C454F5F4645
:103E900034303152455C5441524745545F53544D80
:103EA0005C5441524745545F53544D333246342F8E
:103EB0006770696F5F6F626A6563742E68000000E7
:103EC000636F756C64206E6F742070696E6F7574AB
:103ED0000000000070696E6D6170206D69732D6D5A
:103EE000617463680000000070696E6D6170206E1F
:103EF0006F7420666F756E6420666F7220706572D5
:103F00006970686572616C00030000000044004045
:103F1000930300000A00000000100140930300001A
:103F20000C00000000140140130400001700000002
:103F3000001001409303000027000000001401401E
:103F400013040000FF000000FFFFFFFF000000005F
:103F5000020000000044004093030000090000003C
:103F600000100140930300000B000000001401400A
:103F7000130400001600000000100140930300002D
:103F8000260000000014014013040000FF000000A0
:103F9000FFFFFFFF0000000070696E20213D202818
:103FA00050696E4E616D65294E430000433A5C4393
:103FB0006F64655C6769745F7265706F5C67697474
:103FC0006875625C6D6265642D6F666669636961C0
:103FD0006C5C6C69627261726965735C6D62656468
:103FE0005C746172676574735C68616C5C544152A7
:103FF0004745545F53544D5C5441524745545F53B9
:10400000544D333246345C6770696F5F6170692E5E
:10401000630000000000000001000000110000002B
:104020000200000012000000030000000000111058
:1040300000002110000031100000121000002210BA
:10404000000032100000001050696E6D6170206534
:1040500072726F723A2077726F6E6720706F72742F
:10406000206E756D6265722E00000000433A5C435D
:104070006F64655C6769745F7265706F5C676974B3
:104080006875625C6D6265642D6F666669636961FF
:104090006C5C6C69627261726965735C6D626564A7
:1040A0005C746172676574735C68616C5C544152E6
:1040B0004745545F53544D5C5441524745545F53F8
:1040C000544D333246345C70696E6D61702E6300FE
:1040D00000000000000000000000000000000000E0
:1040E00000000000000000000000000000000000D0
:1040F00000000000000000000000000000000000C0
:1041000000000000000000000000000000000000AF
:10411000000000000000000000000000000000009F
:10412000000000000000000000000000000000008F
:104130002C020020232D302B2000686C4C0065667B
:1041400067454647003031323334353637383941E8
:1041500042434445460030313233343536373839FE
:0C416000616263646566000000000000FE
:08416C0084C0FF7F0100000088
:1041740000BD0105E01000206113000800000000EC
:10418400000000000000000000000000000000002B
:10419400000000000000000000000000000000001B
:1041A400000000000000000000000000000000000B
:1041B40000000000000000000000000004000000F7
:1041C400840C0020C525000802000000000800003F
:1041D400C4030020000000000000000000000000F4
:1041E40000000000000000000000000000000000CB
:1041F40000000000000000000000000000000000BB
:10420400000000000000000000000000D040000892
:10421400F040000810410008000000000000000009
:104224000000000000000000063D0008000000003F
:10423400000000000000000000000000000000007A
:10424400000000000000000000000000000000006A
:10425400000000000000000000000000000000005A
:1042640000000000000000002C020020B90100083A
:0C427400ED190008950100080000000092
:04000005080013C11B
:00000001FF
